:100000000C944F000C94430C0C94430C0C94430C34
:100010000C94430C0C94430C0C94430C0C94430C24
:100020000C94430C0C94430C0C94430C0C94430C14
:100030000C94430C0C94430C0C94430C0C94430C04
:100040000C94430C0C9412060C942E0A0C94800A07
:100050000C94ED0B0C94C60B0C94430C0C94430CB9
:100060000C94430C0C94430C0C94430C0C94430CD4
:100070000C94430C0C94430C0C94570A0C94A90A4E
:100080000C94F70B0C94430C0C94430C01000600E9
:10009000800600064C001894064C0661800011246E
:1000A0001FBECFEFD0E1DEBFCDBFECE8F0E040E017
:1000B00019C0B791A79137912791079107FD0EC0FD
:1000C00097918791EF01F92FE82F0BBF07900D92C1
:1000D000A217B307D9F7FE011BBE04C01D92A217D9
:1000E000B307E1F7ED39F40721F70E949D050C9461
:0600F000E20BF894FFCFC3
:1000F60057656C636F6D65204245444F005541520C
:100106005420544F20555342200055415254204DFF
:07011600657373616765006A
:08011D00000A1F1F0E04000080
:08012500000A0004110E0000A5
:10012E004F925F926F927F928F92CF92DF92EF9269
:10013E000F931F93CF93DF936B01E82EA82FCB0164
:10014E000A96A11DFC015A2F0E941D0C262F683005
:10015E0061F4AE2DC6010596A11DFC015A2F0E9419
:10016E001D0C662321F000E103C000E101C008E090
:10017E00AE2DC6010496A11DFC015A2F0E941D0C26
:10018E00862F837090E0880F991FC82F36018E2C12
:10019E0035E0630E711C811CF301582D0E941D0C5D
:1001AE00613009F4C064AE2DC6010696A11DFC0196
:1001BE005A2F0E941D0C613009F4C160AE2DC6018C
:1001CE000896A11DFC015A2F0E941D0C613009F4E6
:1001DE00C860AE2DC6010996A11DFC015A2F0E94C2
:1001EE001D0C80E1689FB0011124C62B283011F040
:1001FE0010E001C012E0AE2DC6010796A11DFC0154
:10020E005A2F0E941D0C613021F40E94340CD0EE46
:10021E0001C0D0E0602F70E080E090E00E946509A0
:10022E009B01AC0160E074E284EF9AE40E94380C0A
:10023E002B013C01F6015E2D0E94D50B0E94650933
:10024E009B01AC01C301B2010E94380C20E030E0EA
:10025E0040E85FE30E94010C0E940F030E94D20946
:10026E00862F9BE0C90ED11CE11CF6015E2D0E946B
:10027E001D0CE62FF0E0EE0FFF1FE85CF94F01902A
:10028E00F081E02D7083F6015E2D0E941D0CE62F8D
:10029E00F0E0EE0FFF1FE45CF94F0190F081E02DCE
:1002AE008083F6015E2D0E941D0CE62FF0E0EE0F0E
:1002BE00FF1FE85BF94F0190F081E02D1083F601EE
:1002CE005E2D0E941D0CE62FF0E0EE0FFF1FEC5B83
:1002DE00F94F0190F081E02DD861D083F6015E2DAB
:1002EE000E941D0CE62FF0E0EE0FFF1FE05CF94FB1
:1002FE000190F081E02DC08381E0DF91CF911F91BD
:10030E000F91EF90DF90CF908F907F906F905F90D6
:04031E004F9008955F
:10032200CF92DF92EF920F931F93CF93DF93CDB7CC
:10033200DEB7C150D1400FB6F894DEBF0FBECDBFBD
:100342006B01E82E8A011982AE014F5F5F4F0E9456
:10035200AB04AE2DC6010B96A11DFC015A2F0E94C3
:100362001D0C70E0FB01E25BF94F8081813009F0E6
:100372008BC0FB01E05BF94F8081E2E0F0E0EC0F23
:10038200FD1FE80FF11D89818083AE2DC6010B96FA
:10039200A11DFC015A2F0E941D0C862F90E0FC012A
:1003A200E25BF94F1082FC01E05BF94F2081E2E051
:1003B200F0E0EC0FFD1FE20FF11D70814E2D960152
:1003C200245F3F4F4F4FF901542F0E941D0C7613AB
:1003D2002EC0FC01E05BF94F2081CE010296FC01A8
:1003E200E20FF11D10822BE0C20ED11CE11CF601BE
:1003F2005E2D0E941D0CE62FF0E0E05BF94F20819C
:1004020030E02F5F3F4FAC0160E8C8010E94840BCF
:10041200F6015E2D0E941D0C70E0FB01E05BF94FBE
:100422001082FB01E45BF94F81E080832DC0FC0167
:10043200E05BF94F2081E2E0F0E0EC0FFD1FE20FFC
:10044200F11D2081621701F1FC01E05BF94F20816F
:10045200E2E0F0E0EC0FFD1FE20FF11D208122230C
:1004620099F0FC01E05BF94F208130E02F5F3F4FB4
:10047200307833232CF4215031093F6F2F5F3F4FE7
:10048200FC01E05BF94F208381E0CF5FDE4F0FB6C6
:10049200F894DEBF0FBECDBFDF91CF911F910F91B8
:0804A200EF90DF90CF90089568
:1004AA00CF92DF92EF921F93CF93DF93009709F4D5
:1004BA00A5C0FC012285243008F4A2C0293008F026
:1004CA00A1C0EC0181818064818380818064808302
:1004DA00BF0180E80E942705BE016F5F7F4F80E859
:1004EA000E94270510E010C0612F70E0FE01E60FA0
:1004FA00F71F8281806482836E5F7F4F6C0F7D1F3E
:10050A0080E80E9427051F5F8A85181768F38FE322
:10051A009CE90197F1F700C000008A85843011F543
:10052A006E0190E8E92E43E38E2DB6010E942C0459
:10053A00EFE0F7E23197F1F700C0000042E38E2DB9
:10054A00B6010E942C04FFE729EA83E0F15020401B
:10055A008040E1F700C0000048E28E2DB6010E94FB
:10056A002C0421C06E0190E8E92E48E38E2DB601D5
:10057A000E942C04EFE0F7E23197F1F700C0000087
:10058A0048E38E2DB6010E942C04FFE729EA83E096
:10059A00F15020408040E1F700C0000048E38E2D72
:1005AA00B6010E942C046E0190E8E92E41E08E2DDE
:1005BA00B6010E942C0442E08E2DB6010E942C0442
:1005CA0046E08E2DB6010E942C044CE08E2DB60119
:1005DA000E942C048A85843031F448E28E2DB601BB
:1005EA000E942C0405C048E38E2DB6010E942C04FB
:1005FA0040E88E2DB6010E942C0405C080E003C09D
:10060A0080E001C080E0DF91CF911F91EF90DF90F1
:04061A00CF900895E0
:10061E004F925F926F927F928F929F92AF92BF9204
:10062E00CF92DF92EF92FF92CF93DF9300D000D064
:10063E00CDB7DEB76B017C0127E1F694E794D79432
:10064E00C7942A95D1F796013327263931050CF038
:10065E0067C06B017C014B015C0197FF04C0B7FAC8
:10066E00B094B7F8B0942B013C012E373105A4F4A9
:10067E0020E030E040E05BE4C501B4010E94020CD2
:10068E0069837A838B839C8320E030E0A901C301C8
:10069E00B2010E943C0C44C020E030E040E05BE43C
:1006AE00C501B4010E94020C20E030E040E05BE4A2
:1006BE000E94010CA50194010E94010C2B013C012A
:1006CE0020E030E040E05FE30E942F0C18166CF43F
:1006DE00A3019201C501B4010E94020C20E030E09A
:1006EE0040E85FE30E94010C19C020E030E040E0DA
:1006FE005FEBC301B2010E942A0CA30192011816EE
:10070E004CF0C501B4010E94020C20E030E040E83C
:10071E005FE302C0C501B4010E94020CF7FC9058C1
:10072E000F900F900F900F90DF91CF91FF90EF9061
:10073E00DF90CF90BF90AF909F908F907F906F90F3
:06074E005F904F9008953A
:10075400CF92DF92EF926B01E82EA82FCB01079680
:10076400A11DFC015A2F0E941D0C613009F04EC0DE
:10077400AE2DC6010B96A11DFC015A2F0E941D0C23
:1007840070E0FB01EC5AF94F808190E0019690787B
:1007940099231CF401979F6F0196FB01EE5AF94FC0
:1007A400208130E08217930709F44FC0FB01EC5A13
:1007B400F94F8081F62FEE27E050FF4FE80FF11D2F
:1007C40040838BE0C80ED11CE11CF6015E2D0E9413
:1007D4001D0C70E0FB01EC5AF94F808190E001960A
:1007E400907899231CF401979F6F0196FB01EC5AB2
:1007F400F94F8083660F771FFB01EC5BF94F019083
:10080400F081E02D8081806280831FC061111DC052
:10081400AE2DC6010B96A11DFC015A2F0E941D0C82
:1008240070E0FB01EE0FFF1FE85BF94F0190F081D0
:10083400E02D808185FFECCF660F771FFB01EC5C18
:10084400F94F0190F081E02D408381E0EF90DF903B
:04085400CF900895A4
:10085800CF92DF92EF920F931F93CF93DF93A82F3E
:10086800CB01D42F0097A10509F464C09C014A2F3D
:10087800265F3F4F4F4FF901542F0E941D0C6430E3
:1008880008F45AC0693008F059C06C01EA2E40E0FB
:10089800BC018A2F0E942E08AE2DC6010A96A11D02
:1008A800FC015A2F0E941D0C6430E1F54D2F429532
:1008B8004F708E2DB6010E94A2098E2DB6010E949E
:1008C8001D0B4D2F8E2DB6010E94A20987EE93E0D5
:1008D8000197F1F700C0000040E08E2DB6016F5F70
:1008E8007F4F8F4F0E942E0887EE93E00197F1F714
:1008F80000C000001AC08C2F90E04D2F50E00C2E45
:1009080002C0559547950A94E2F7417002962E2D3C
:100918008601080F191F211D822FB8010E942E0879
:10092800CF5F01C0C0E0C83030F38E2DB6010E9401
:100938001D0B05C080E003C080E001C080E0DF91AE
:0E094800CF911F910F91EF90DF90CF90089507
:10095600CF92DF92EF926B01E82EDA019B01482FCE
:10096600255F3F4F4F4FF901542F0E941D0C862FD4
:1009760090E0FC01E85AF94F70814E2D9601295FEF
:100986003F4F4F4FF901542F0E941D0C613091F5D6
:10099600FC01EA5AF94F2081721709F450C0FC0194
:1009A600EA5AF94F2081F82FEE27E050FD4FE20F6B
:1009B600F11D80818C938BE0C80ED11CE11CF601E1
:1009C6005E2D0E941D0C70E0FB01EA5AF94F8081F2
:1009D60090E00196907899231CF401979F6F0196F9
:1009E600FB01EA5AF94F8083FB01E25BF94F81E094
:1009F600808325C0611123C0FC01EE0FFF1FE85B59
:100A0600F94F0190F081E02D20812223ACF7880F69
:100A1600991FFC01EC5CF94F0190F081E02D80817B
:100A26008C938BE0C80ED11CE11CF6015E2D0E9452
:100A36001D0CE62FF0E0E25BF94F81E0808381E058
:080A4600EF90DF90CF900895BE
:100A4E00CF92DF92EF929B01482F611571058105C0
:100A5E0009F463C0FB01542F0E941D0C6695669528
:100A6E0066956770A62FF901542F0E941D0C6770B2
:100A7E00862F90E0873091050CF051C06901E42E6D
:100A8E00F9015E2D0E941D0C66FB222720F966FFE0
:100A9E0023C0213009F045C0880F991FFC01E25F89
:100AAE00F94F0190F081E02D208181E090E002C0AD
:100ABE00880F991FAA95E2F7822B8083F6015E2D8F
:100ACE000E941D0C462F441F4427441F8E2DB60135
:100ADE000E942E0881E026C0880F991FFC01E25F5C
:100AEE00F94F0190F081E02D208181E090E002C06D
:100AFE00880F991FAA95E2F7809582238083F601CD
:100B0E005E2D0E941D0C462F441F4427441F8E2D20
:100B1E00B6010E942E0881E005C080E003C080E08F
:0C0B2E0001C080E0EF90DF90CF900895B0
:100B3A00CF93DF93CDB7DEB760970FB6F894DEBFD9
:100B4A000FBECDBF89E296E00E94550289E296E087
:100B5A002C0120E8622E882E952CA22EC12C0DE1A4
:100B6A00E02E01E0F02E00E021E041E0862DB20106
:100B7A000E94D50806EFE02E00E0F02E00E023E008
:100B8A0041E0862DB2010E94010ACC24C39405E2F9
:100B9A00E02E01E0F02E00E020E141E0862DB201D6
:100BAA000E94D5088FEF9EE924E2815090402040B0
:100BBA00E1F700C0000003E0E02E01E0F02E00E0C3
:100BCA0023E041E0862DB2010E94010A8CE196E001
:100BDA002C0120E8622EB82EC52CD22E862DB20109
:100BEA000E94970020E131E040E0862DB2010E9488
:100BFA00400B8E010F5F1F4FA8016B2D7C2D8D2D91
:100C0A000E949101780180E8082F21E042E0682DD6
:0A0C1A00792D8A2D0E94010AECCF0B
:100C24001F920F920FB60F9211240BB60F922F93AF
:100C34003F938F939F93EF93FF936C9B1BC0809183
:100C44005B06813019F480935D064EC080915B068B
:100C5400833009F049C010925C0680915E0690E0F2
:100C64000196907899231CF401979F6F01968093C5
:100C74005E063AC080915B06823021F58091600661
:100C840090E00196907899231CF401979F6F019648
:100C940020915F0630E08217930731F1E0916006FE
:100CA400F0E08FB1E050FB4F80838091600690E0CC
:100CB4000196907899231CF401979F6F0196809375
:100CC400600612C080915B06833071F410925C065A
:100CD40080915E0690E00196907899231CF4019728
:100CE4009F6F019680935E06FF91EF919F918F9184
:100CF4003F912F910F900BBE0F900FBE0F901F903E
:020D0400189540
:100D060010C00E940F0C58F00E94080C40F029F405
:100D16005F3F29F00C94240C51110C94170C0C9481
:100D2600400C0E94620B68F39923B1F3552391F3AB
:100D3600951B550BBB27AA2762177307840738F044
:100D46009F5F5F4F220F331F441FAA1FA9F335D0A1
:100D56000E2E3AF0E0E832D091505040E695001C55
:100D6600CAF72BD0FE2F29D0660F771F881FBB1F0F
:100D7600261737074807AB07B0E809F0BB0B802DED
:100D8600BF01FF2793585F4F3AF09E3F510578F019
:100D96000C94240C0C94170C5F3FE4F3983ED4F3A8
:100DA600869577956795B795F7959F5FC9F7880FED
:100DB600911D9695879597F90895E1E0660F771F3F
:100DC600881FBB1F621773078407BA0720F0621BD0
:0E0DD600730B840BBA0BEE1F88F7E09508959F
:100DE400CF92DF92EF920F931F93CF93DF93A82FAD
:100DF400CB01D42F0097A10509F450C09C014A2FC0
:100E0400265F3F4F4F4FF901542F0E941D0C643051
:100E140008F446C0693008F045C06C01EA2E41E090
:100E2400BC018A2F0E942E08AE2DC6010A96A11D70
:100E3400FC015A2F0E941D0C643041F54D2F429540
:100E44004F708E2DB6010E94A2098E2DB6010E940C
:100E54001D0B4D2F8E2DB6010E94A2091AC08C2F96
:100E640090E04D2F50E00C2E02C0559547950A9402
:100E7400E2F7417002962E2D8601080F191F211DDD
:100E8400822FB8010E942E08CF5F01C0C0E0C83095
:100E940030F38E2DB6010E941D0B05C080E003C007
:100EA40080E001C080E0DF91CF911F910F91EF901E
:060EB400DF90CF900895CD
:100EBA000FC00E94080C38F00E940F0C20F09523F6
:100ECA0011F00C94240C0C94400C11240C94170C63
:100EDA000E94620B70F3959FC1F3950F50E0551F66
:100EEA00629FF001729FBB27F00DB11D639FAA2775
:100EFA00F00DB11DAA1F649F6627B00DA11D661FC4
:100F0A00829F2227B00DA11D621F739FB00DA11DE4
:100F1A00621F839FA00D611D221F749F3327A00D9E
:100F2A00611D231F849F600D211D822F762F6A2F3A
:100F3A0011249F5750409AF0F1F088234AF0EE0F9F
:100F4A00FF1FBB1F661F771F881F91505040A9F7CC
:100F5A009E3F510580F00C94240C0C94170C5F3FB3
:100F6A00E4F3983ED4F3869577956795B795F79508
:100F7A00E7959F5FC1F7FE2B880F911D9695879580
:040F8A0097F9089536
:100F8E0011C00E94080C38F00E940F0C20F039F4AA
:100F9E009F3F19F426F40C94400C0EF4E095E7FBF9
:100FAE000C94240CE92F0E94620B58F3BA176207B7
:100FBE0073078407950720F079F4A6F50C94160CA8
:100FCE000EF4E0950B2EBA2FA02D0B01B901900156
:100FDE000C01CA01A0011124FF27591B99F0593F9A
:100FEE0050F4503E68F11A16F040A22F232F342FE2
:100FFE004427585FF3CF469537952795A795F04030
:10100E005395C9F77EF41F16BA0B620B730B840B44
:10101E00BAF09150A1F0FF0FBB1F661F771F881FFC
:10102E00C2F70EC0BA0F621F731F841F48F4879554
:10103E0077956795B795F7959E3F08F0B0CF939546
:0E104E00880F08F09927EE0F97958795089563
:10105C00CF92DF92EF926B01E82E6115710581053D
:10106C0009F443C0FB015E2D0E941D0C669566952C
:10107C0066956770862FF6015E2D0E941D0C6770B9
:10108C0070E0673071059CF54423C1F0413089F55F
:10109C00660F771FFB01E050FA4F0190F081E02DB5
:1010AC00408121E030E0B90102C0660F771F8A95BC
:1010BC00E2F7CB01842B808381E01CC0660F771F85
:1010CC00FB01E050FA4F0190F081E02D408121E0CE
:1010DC0030E0B90102C0660F771F8A95E2F7CB01A9
:1010EC0080958423808381E005C080E003C080E08C
:0C10FC0001C080E0EF90DF90CF900895DD
:10110800CF93DF9390E0FC01E85AF94F208130E05B
:101118002F5F3F4F307833232CF4215031093F6F34
:101128002F5F3F4FFC01EA5AF94F408150E02417E6
:101138003507A1F1EC01C85AD94F3881FC01EE0FEF
:10114800FF1FEC5CF94FA081B1812C91F82FEE279D
:10115800E050FD4FE30FF11D2083288130E02F5F21
:101168003F4F307833232CF4215031093F6F2F5FE4
:101178003F4FFC01E85AF94F2083880F991FFC0163
:10118800E85BF94F0190F081E02D808184FD05C076
:10119800808183FD02C0808182FD8C91DF91CF9197
:0211A8000895A8
:1011AA006F927F928F92CF92DF92EF92FF920F937C
:1011BA001F93CF93DF933701802E61157105810547
:1011CA0051F10C2DE82C6301122FD42F3B01882EEC
:1011DA00402F50E0485F5F4F440F440F440F0E9476
:1011EA002C04C0E00FC0AE2DC6018C0F911DA11DAD
:1011FA00FC015A2F0E941D0C462F882DB3010E9414
:10120A00F206CF5FC83078F3212F4D2F882DB30116
:10121A000E949D0B01C080E0DF91CF911F910F9139
:10122A00FF90EF90DF90CF908F907F906F9008950E
:10123A00CF93DF9390E0FC01EC5AF94F3081FC0127
:10124A00EE5AF94F2081321719F1FC01EE0FFF1FF8
:10125A00EC5CF94FC081D181DC01AE5AB94F2C91B7
:10126A00F82FEE27E050FF4FE20FF11D208128836F
:10127A002C9130E02F5F3F4F307833232CF42150EC
:10128A0031093F6F2F5F3F4FFC01EE5AF94F208320
:10129A00FC01EC5AF94F3081FC01EE5AF94F2081DA
:1012AA0032130BC0880F991FFC01EC5BF94F0190B8
:1012BA00F081E02D80818F7D8083DF91CF91089529
:1012CA00E89409C097FB3EF49095809570956195D6
:1012DA007F4F8F4F9F4F9923A9F0F92F96E9BB278C
:1012EA009395F695879577956795B795F111F8CF08
:1012FA00FAF4BB0F11F460FF1BC06F5F7F4F8F4F73
:10130A009F4F16C0882311F096E911C0772321F068
:10131A009EE8872F762F05C0662371F096E8862F00
:10132A0070E060E02AF09A95660F771F881FDAF757
:0A133A00880F9695879597F908959E
:10134400CF92DF92EF92CF936B01E82EC42F4170BE
:101354006E5F7F4F8F4F0E942E08C1FB442740F9D8
:101364008E2DB6016D5F7F4F8F4F0E942E08C2FBFA
:10137400442740F98E2DB6016C5F7F4F8F4F0E943A
:101384002E08C3FB442740F98E2DB6016B5F7F4FB7
:101394008F4F0E942E08CF91EF90DF90CF90089549
:1013A4000E946A0B88F09F5798F0B92F9927B7517C
:1013B400B0F0E1F0660F771F881F991F1AF0BA95F5
:1013C400C9F714C0B13091F00E94160CB1E0089531
:1013D4000C94160C672F782F8827B85F39F0B93F23
:1013E400CCF3869577956795B395D9F73EF49095A8
:0E13F4008095709561957F4F8F4F9F4F0895A4
:101402006F927F928F92CF92DF92EF92FF920F9321
:101412003B01882E6701E02E61157105810599F067
:101422000E94D20A09C08FEFC81AD80AE80A462FCA
:10143200882DB3010E94F206F6015E2D0E941D0C5A
:101442006111F1CF01C080E00F91FF90EF90DF902A
:0A145200CF908F907F906F90089567
:10145C001F920F920FB60F9211240BB60F922F936F
:10146C003F934F935F936F937F938F939F93AF9320
:10147C00BF93EF93FF9380E00E948408FF91EF915C
:10148C00BF91AF919F918F917F916F915F914F9190
:10149C003F912F910F900BBE0F900FBE0F901F908E
:0214AC00189591
:1014AE001F920F920FB60F9211240BB60F922F931D
:1014BE003F934F935F936F937F938F939F93AF93CE
:1014CE00BF93EF93FF9381E00E948408FF91EF9109
:1014DE00BF91AF919F918F917F916F915F914F913E
:1014EE003F912F910F900BBE0F900FBE0F901F903C
:0214FE0018953F
:101500001F920F920FB60F9211240BB60F922F93CA
:101510003F934F935F936F937F938F939F93AF937B
:10152000BF93EF93FF9380E00E941D09FF91EF911D
:10153000BF91AF919F918F917F916F915F914F91EB
:101540003F912F910F900BBE0F900FBE0F901F90E9
:021550001895EC
:101552001F920F920FB60F9211240BB60F922F9378
:101562003F934F935F936F937F938F939F93AF9329
:10157200BF93EF93FF9381E00E941D09FF91EF91CA
:10158200BF91AF919F918F917F916F915F914F9199
:101592003F912F910F900BBE0F900FBE0F901F9097
:0215A20018959A
:1015A400213108F521112150423071F018F44130F5
:1015B40031F01BC0433069F0443081F016C040E87C
:1015C400420F0E942C04089540EC420F0E942C0408
:1015D400089544E9420F0E942C04089544ED420FFB
:0E15E4000E942C04089580E0089581E008958F
:1015F200990F0008550FAA0BE0E8FEEF1616170622
:10160200E807F907C0F012161306E407F50798F089
:10161200621B730B840B950B39F40A2661F0232BA2
:10162200242B252B21F408950A2609F4A140A6951E
:081632008FEF811D811D089559
:10163A00CF92DF92EF926B01E82E9FEFC91AD90A77
:10164A00E90A41E08E2DB6010E942E08EFECF7E080
:10165A003197F1F700C0000040E08E2DB6010E94DC
:10166A002E08EFECF7E03197F1F700C00000EF9099
:06167A00DF90CF900895FF
:101680006F927F928F92CF92DF92EF923B01882EE2
:101690006901E42E09C08FEFC81AD80AE80A462F5C
:1016A000882DB3010E94AA03F6015E2D0E941D0C35
:1016B0006111F1CF81E0EF90DF90CF908F907F901C
:0416C0006F9008958A
:1016C40057FD9058440F551F59F05F3F71F04795EF
:1016D400880F97FB991F61F09F3F79F087950895D4
:1016E400121613061406551FF2CF4695F1DF08C0F3
:1016F400161617061806991FF1CF86957105610510
:0417040008940895A8
:10170800CF92DF92EF926A01E62EDC01280F391F93
:10171800A217B30751F0F6015E2D0E941D0C6D93C0
:101728004FEFC41AD40AE40AF3CFEF90DF90CF90BA
:02173800089512
:10173A00CF92DF92EF920F9361157105810551F0F7
:10174A006B01E82E0E94D20A402F8E2DB6010E940C
:10175A00F20601C080E00F91EF90DF90CF900895DC
:10176A00092E0394000C11F4882352F0BB0F40F4A5
:10177A00BF2B11F460FF04C06F5F7F4F8F4F9F4FE5
:02178A000895C0
:10178C001F920F920FB60F9211248F9381E08093CA
:0E179C005A068F910F900FBE0F901F90189558
:1017AA0057FD06C05BBF679177918791979108951E
:0A17BA006191719181919191089560
:1017C400EC010E94480C0E94470CCE010E94490C77
:0617D400CE010E94450C4D
:1017DA001F920F920FB60F9211240F900FBE0F9007
:0417EA001F9018959F
:1017EE001F920F920FB60F9211240F900FBE0F90F3
:0417FE001F9018958B
:0E1802005058BB27AA270E94C7070C94B50BAD
:0E18100000240A9416161706180609060895F5
:0E181E0000240A9412161306140605060895F7
:0E182C00E894BB2766277727CB0197F908952C
:0E183A0057FD03C05BBF67910895608108955C
:0C18480097F99F6780E870E060E0089569
:0A1854000E94F90A08F481E00895EB
:0A185E000E94F90A08F48FEF0895C4
:081868008FB780688FBF08955F
:081870000E9483060C94B50BE5
:081878000E945D070C94B50B02
:061880009FEF80EC0895CB
:041886000C940000BE
:04188A000E9479003F
:02188E000895BB
:021890000895B9
:021892000895B7
:0E1894003B0038003500320023006200650082
:0E18A2003A003700340031002200610064007B
:0D18B0008025000003000000000010000D66
:0B18BD001033222A323A000000000421
:0418C8002C009C0054
:0418CC0090009800F0
:0418D0002900990052
:0418D40095009D00DE
:0418D8002A009A0048
:0418DC002B009B0042
:00000001FF
