:100000000C9455000C9431100C9431100C94311058
:100010000C9431100C9431100C9431100C9431105C
:100020000C9431100C9431100C9431100C9431104C
:100030000C9431100C9431100C9431100C9431103C
:100040000C9431100C9431100C94BA0D0C940C0ECD
:100050000C94D20F0C94890F0C9431100C94311025
:100060000C9431100C9431100C9431100C9431100C
:100070000C9431100C9431100C94E30D0C94350E4B
:100080000C94DC0F0C9431100C9431100100090019
:10009000800900093B002070093B094C80094C098C
:1000A0004D0020AB094D094E800011241FBECFEF3B
:1000B000D0E1DEBFCDBFECE8F0E040E019C0B79181
:1000C000A79137912791079107FD0EC097918791CE
:1000D000EF01F92FE82F0BBF07900D92A217B3077E
:1000E000D9F7FE011BBE04C01D92A217B307E1F7AA
:1000F000E93AF40721F70E94E6010C94C70FF8943F
:02010000FFCF2F
:1001020041542B4346554E3D312C310D0A002B43B1
:100112005245473A203100415445310D0A004F4BB8
:100122000041540D0A0041542B434D47463D310DC9
:100132000A0041542B434E4D493D322C312C302C78
:10014200302C300D0A0041542B53415042523D3362
:100152002C312C22434F4E54595045222C224750C9
:100162005253220D0A0041542B53415042523D3307
:100172002C312C2241504E222C22696E7465726EF3
:1001820065742E74652E6567220D0A0041542B5347
:10019200415042523D332C312C2241504E222C22CE
:1001A2006D6F62696E696C776562220D0A00415457
:1001B2002B53415042523D332C312C2241504E227E
:1001C2002C22696E7465726E6574220D0A004154A8
:1001D2002B53415042523D332C312C2241504E225E
:1001E2002C22696E7465726E65742E766F64616618
:1001F2006F6E652E6E6574220D0A0041542B5341B9
:100202005042523D312C310D0A00415444003B0D05
:100212000A0041542B434D47533D2200220D0A0050
:100222002B434D54493A0041542B434D474C3D22F8
:1002320052454320554E52454144220D0A002B435C
:100242004D474C3A20310041542B48545450494EAA
:1002520049540D0A0041542B4854545050415241C4
:100262003D22434944222C310D0A0041542B48546B
:100272005450504152413D2255524C222C22687416
:1002820074703A2F2F6170692E71756F7461626C90
:10029200652E696F2F72616E646F6D3F7461677353
:1002A2003D776973646F6D220D0A0041542B4854E7
:1002B2005450414354494F4E3D300D0A002B48548F
:1002C2005450414354494F4E3A20302C3230300082
:1002D20041542B48545450524541440D0A007B224C
:1002E2000041542B485454505445524D0D0A00417C
:0E02F200542B53415042523D302C310D0A0026
:1003000057656C636F6D65204461766964000A47C8
:10031000534D204D6F64756C65200A496E69746990
:10032000616C697A696E672E2E2E200A0047534D44
:10033000204D6F64756C65205265616479000A47D1
:10034000534D204D6F64756C652052656164790A68
:10035000004D6573736167652046726F6D20534968
:100360004D383038204279204461766964002B3260
:1003700030317878787878787878002B3230317826
:100380007878787878787878002B434D54493A20FB
:1003900022534D2200204E6577204D6573736167AF
:1003A00065202120200052494E470020496E636F8E
:0C03B0006D696E672043616C6C202000BA
:0803BC00000A1F1F0E040000DF
:0803C400000A0004110E000004
:1003CC00CF93DF93CDB7DEB7CA50D4400FB6F894B5
:1003DC00DEBF0FBECDBF8AE199E00E94D20A8AE14E
:1003EC0099E09C0140E8CB5FDB4F288339834A833B
:1003FC00C550D440CB5FDB4F3881C550D440CD5F66
:10040C00DB4F3883C350D440CA5FDB4F4881C650A2
:10041C00D440CC5FDB4F4883C450D440C95FDB4F22
:10042C005880C750D440C12C0CEBE02E03E0F02ECA
:10043C0000E021E041E0CB5FDB4F688179818A816C
:10044C00C550D4400E948E0B00E0E02E03E0F02E4D
:10045C0000E023E041E0CB5FDB4F688179818A814A
:10046C00C550D4400E94630DCC24C39404ECE02E00
:10047C0003E0F02E00E020E141E0CB5FDB4F688130
:10048C0079818A81C550D4400E948E0B8FEF9EE9F2
:10049C00A4E281509040A040E1F700C000008DE044
:1004AC0099E09C0140E8C85FDB4F288339834A837D
:1004BC00C850D440C85FDB4F9880C850D440C75F49
:1004CC00DB4FA880C950D440C65FDB4FB880CA5000
:1004DC00D440842FB9010E9490032EE033E040E019
:1004EC00C85FDB4F688179818A81C850D4400E94F3
:1004FC00CA0E3FEF4EE984E2315040408040E1F7B4
:10050C0000C0000080E099E01C01A0E84A2EC82E33
:10051C00D32C1A2F03E0C85FDB4F288139814A8125
:10052C00C850D440842DB1010E94510819821A82FE
:10053C000DE2E02E03E0F02E00E021E042E0CB5F84
:10054C00DB4F688179818A81C550D4400E94630D4C
:10055C002EE333E040E0C85FDB4F688179818A810C
:10056C00C850D4400E94CA0E842DB1010E94A50F20
:10057C00BFEFE8E0FDE3B150E040F040E1F700C030
:10058C000000842DB1010E946A062FEF38E04DE384
:10059C00215030404040E1F700C0000001E5E02E62
:1005AC0003E0F02E00E02EE633E040E0842DB101B4
:1005BC000E94060A8FEF98E0ADE381509040A04076
:1005CC00E1F700C000002BE733E040E0842DB101DF
:1005DC000E94160CAE014D5F5F4F6C2D7D2D812F4F
:1005EC000E946C0AAE014D5F5D4F692D7A2D8B2DEB
:1005FC000E946C0AAE014F5F5F4F6C2D7D2D812FD9
:10060C000E94020DAE014E5F5F4F692D7A2D8B2D2E
:10061C000E94020D8981813009F064C01E01B3E093
:10062C002B0E311C3101E0E88E2E482D9301692DE3
:10063C007A2D8B2D0E94CA0E29E833E040E0882DDC
:10064C00B3010E94350B672B682B19F105E9E02EDD
:10065C0003E0F02E00E021E042E0CD5FDB4F68814B
:10066C00C350D440CC5FDB4F7881C450D440852D2F
:10067C000E94630DFFEF29E638E1F1502040304035
:10068C00E1F700C000006C2D7D2D812F0E94900D94
:10069C001EC026EA33E040E0882DB3010E94350BE2
:1006AC00672B682BA1F00BEAE02E03E0F02E00E0A4
:1006BC0021E042E0CD5FDB4F6881C350D440CC5F7A
:1006CC00DB4F7881C450D440852D0E94630DFE0110
:1006DC00339680E092E0DF019C011D922150304066
:1006EC00E1F719828A81813009F074CF1E013DEF48
:1006FC00231A330A910140E86C2D7D2D812F0E9425
:10070C00CA0E80E092E0D101FC011D923197E9F70D
:04071C001A8260CF0E
:100720004F925F926F927F928F92CF92DF92EF9271
:100730000F931F93CF93DF936B01E82EA82FCB016C
:100740000A96A11DFC015A2F0E940210262F683024
:1007500061F4AE2DC6010596A11DFC015A2F0E9421
:100760000210662321F000E103C000E101C008E0AF
:10077000AE2DC6010496A11DFC015A2F0E94021045
:10078000862F837090E0880F991FC82F36018E2C1A
:1007900035E0630E711C811CF301582D0E9402107C
:1007A000613009F4C064AE2DC6010696A11DFC019E
:1007B0005A2F0E940210613009F4C160AE2DC601AB
:1007C0000896A11DFC015A2F0E940210613009F405
:1007D000C860AE2DC6010996A11DFC015A2F0E94CA
:1007E000021080E1689FB0011124C62B283011F05F
:1007F00010E001C012E0AE2DC6010796A11DFC015C
:100800005A2F0E940210613021F40E941E10D0EE77
:1008100001C0D0E0602F70E080E090E00E94530CB7
:100820009B01AC0160E074E284EF9AE40E94261020
:100830002B013C01F6015E2D0E94980F0E94530C83
:100840009B01AC01C301B2010E94261020E030E000
:1008500040E85FE30E94E60F0E9447050E94340DC6
:10086000862F9BE0C90ED11CE11CF6015E2D0E9473
:100870000210E62FF0E0EE0FFF1FE95DF64F01904A
:10088000F081E02D7083F6015E2D0E940210E62FAC
:10089000F0E0EE0FFF1FE55DF64F0190F081E02DD7
:1008A0008083F6015E2D0E940210E62FF0E0EE0F2D
:1008B000FF1FE95CF64F0190F081E02D1083F601F7
:1008C0005E2D0E940210E62FF0E0EE0FFF1FED5CA0
:1008D000F64F0190F081E02DD861D083F6015E2DB6
:1008E0000E940210E62FF0E0EE0FFF1FE15DF64FD1
:1008F0000190F081E02DC08381E0DF91CF911F91C5
:100900000F91EF90DF90CF908F907F906F905F90DE
:040910004F90089567
:100914002F923F924F928F929F92AF92BF92CF921B
:10092400DF92EF92FF920F931F93CF93DF93CDB794
:10093400DEB7C750D2400FB6F894DEBF0FBECDBFAE
:1009440061157105810509F486C02115310541053C
:1009540009F483C047015801CB5FDD4F28833983F5
:100964004A83C550D240CE5FDD4F688379838A8342
:10097400C250D2401982FE01329680E092E0DF013B
:100984009C011D9221503040E1F7C12CD12C7601FD
:100994005AC0AE014E5F5F4FCE5FDD4F68817981F3
:1009A4008A81C250D2400E946C0AAE014F5F5F4FF1
:1009B400CE5FDD4F688179818A81C250D2400E9426
:1009C400020D89818130A1F51E0132E0230E311C14
:1009D40080E8482E60913B0970913C0980913D0963
:1009E400442D91010E94CA0ECB5FDD4F28813981CD
:1009F4004A81C550D240842DB1010E94350B672B2A
:100A0400682B59F09FEFA9E6B8E19150A040B0409F
:100A1400E1F700C0000081E021C0FE01329680E0D1
:100A240092E0DF019C011D9221503040E1F71982D0
:100A34008FEC97E00197F1F700C000009FEFC91A0F
:100A4400D90AE90AF90AC814D904EA04FB0408F427
:100A5400A0CF80E003C080E001C080E0C95FDD4F2B
:100A64000FB6F894DEBF0FBECDBFDF91CF911F91BB
:100A74000F91FF90EF90DF90CF90BF90AF909F9039
:0A0A84008F904F903F902F9008953F
:100A8E004F925F926F927F928F929F92AF92BF9290
:100A9E00CF92DF92EF92FF92CF93DF9300D000D0F0
:100AAE00CDB7DEB76B017C0127E1F694E794D794BE
:100ABE00C7942A95D1F796013327263931050CF0C4
:100ACE0067C06B017C014B015C0197FF04C0B7FA54
:100ADE00B094B7F8B0942B013C012E373105A4F435
:100AEE0020E030E040E05BE4C501B4010E94E70F76
:100AFE0069837A838B839C8320E030E0A901C30154
:100B0E00B2010E942A1044C020E030E040E05BE4D5
:100B1E00C501B4010E94E70F20E030E040E05BE445
:100B2E000E94E60FA50194010E94E60F2B013C01E5
:100B3E0020E030E040E05FE30E94191018166CF4DC
:100B4E00A3019201C501B4010E94E70F20E030E03D
:100B5E0040E85FE30E94E60F19C020E030E040E07D
:100B6E005FEBC301B2010E941410A301920118168B
:100B7E004CF0C501B4010E94E70F20E030E040E8E0
:100B8E005FE302C0C501B4010E94E70FF7FC905865
:100B9E000F900F900F900F90DF91CF91FF90EF90ED
:100BAE00DF90CF90BF90AF909F908F907F906F907F
:060BBE005F904F900895C6
:100BC400CF92DF92EF92CF93DF93A82FCB010097C0
:100BD400A10509F472C0FC015A2F0E940210623070
:100BE40008F06DC0E4E7F0E02081622B60839C0193
:100BF4004A2F2F5F3F4F4F4FF901542F0E9402108D
:100C0400643008F05EC0E1E7F0E02081622B60838D
:100C1400C2E7D0E028816C01EA2E37E0C30ED11C74
:100C2400E11CF6015E2D0E9402106E7F262B2883A4
:100C34009C014A2F2F5F3F4F4F4FF901542F0E94C1
:100C44000210662331F0613031F0623031F4C0E1DA
:100C540005C0C1E003C0C4E001C0C0E40296A11D08
:100C6400FC015A2F0E94980F9B01AC0160E072E1D5
:100C74008AE790E00E940E0FCA01B9016051710920
:100C8400810991092C2F30E0220F331F032E000C11
:100C9400440B550B0E940E0FCA01B9010E94530C5C
:100CA4000E9447050E94340D60937000E4E7F0E071
:100CB40080818460808381E005C080E003C080E09F
:100CC40001C080E0DF91CF91EF90DF90CF90089545
:100CD4006F927F928F92EF92FF920F931F93611501
:100CE4007105810509F46AC03B01882E29E432E0CC
:100CF40040E00E94CA0E18E8E12E13E1F12E00E054
:100D040010E020E231E040E0882DB3010E948A0423
:100D140027E532E040E0882DB3010E94CA0E20E2AC
:100D240031E040E0882DB3010E948A042DE632E0D0
:100D340040E0882DB3010E94CA0E20E231E040E079
:100D4400882DB3010E948A042DEA32E040E0882D08
:100D5400B3010E94CA0E2FEB32E040E0882DB301AC
:100D64000E948A0422ED32E040E0882DB3010E9403
:100D7400CA0E20EE32E040E0882DB3010E948A04BE
:100D840023EE32E040E0882DB3010E94CA0E20E237
:100D940031E040E0882DB3010E948A0421EF32E063
:100DA40040E0882DB3010E94CA0E20E231E040E009
:100DB400882DB3010E948A0481E001C080E01F9164
:0E0DC4000F91FF90EF908F907F906F900895A9
:100DD2006F927F928F92EF92FF920F931F93CF9316
:100DE20061157105810509F460C0C42F3B01882E8D
:100DF20028E431E040E00E94CA0E18E8E12E13E137
:100E0200F12E00E010E020E231E040E0882DB30155
:100E12000E948A04C13079F028F0C230A9F0C330B0
:100E2200E1F024C028E631E040E0882DB3010E94C1
:100E3200CA0EC1E01CC02EE831E040E0882DB301AB
:100E42000E94CA0EC1E013C020EB31E040E0882DC1
:100E5200B3010E94CA0EC1E00AC020ED31E040E0B9
:100E6200882DB3010E94CA0EC1E001C0C0E018E89B
:100E7200E12E13E1F12E00E010E020E231E040E04B
:100E8200882DB3010E948A04C13081F42DEF31E034
:100E920040E0882DB3010E94CA0E20E231E040E01A
:100EA200882DB3010E948A0401C0C0E08C2FCF912B
:100EB2001F910F91FF90EF908F907F906F90089508
:100EC200CF92DF92EF926B01E82EA82FCB0107960B
:100ED200A11DFC015A2F0E940210613009F044C08A
:100EE200AE2DC6010B96A11DFC015A2F0E940210C5
:100EF20070E0FB01EA5BF64F808190E00196FB0116
:100F0200EC5BF64F208130E08217930709F44BC067
:100F1200FB01EA5BF64F8081FB01FE2FEE27FF0FFC
:100F2200E050FF4FE80FF11D40838BE0C80ED11C4B
:100F3200E11CF6015E2D0E94021070E0FB01EA5BEB
:100F4200F64F808190E00196FB01EA5BF64F8083C9
:100F5200660F771FFB01ED5CF64F0190F081E02DEB
:100F62008081806280831FC061111DC0AE2DC601C9
:100F72000B96A11DFC015A2F0E94021070E0FB018A
:100F8200EE0FFF1FE95CF64F0190F081E02D8081AA
:100F920085FFECCF660F771FFB01ED5DF64F0190E9
:100FA200F081E02D408381E0EF90DF90CF900895B3
:100FB200CF92DF92EF926B01E82EDA019B01482F6C
:100FC200255F3F4F4F4FF901542F0E940210862F89
:100FD20090E0FC01E65BF64F70814E2D9601295F91
:100FE2003F4F4F4FF901542F0E940210613071F5AB
:100FF200FC01E85BF64F2081721709F44CC0FC013A
:10100200E85BF64F2081FC01FE2FEE27FF0FE05038
:10101200FB4FE20FF11D80818C938BE0C80ED11C37
:10102200E11CF6015E2D0E94021070E0FB01E85BFC
:10103200F64F808190E00196FB01E85BF64F8083DA
:10104200FB01E05CF64F81E0808325C0611123C083
:10105200FC01EE0FFF1FE95CF64F0190F081E02DDD
:1010620020812223ACF7880F991FFC01ED5DF64F1A
:101072000190F081E02D80818C938BE0C80ED11C11
:10108200E11CF6015E2D0E940210E62FF0E0E05C0A
:10109200F64F81E0808381E0EF90DF90CF9008955A
:1010A2006F927F928F92EF92FF920F931F9361152F
:1010B2007105810509F460C03B01882E00934C093B
:1010C20020933B0930933C0940933D090E949003D1
:1010D20022E031E040E0882DB3010E94CA0E10E305
:1010E200E12E15E7F12E00E010E020E131E040E0D2
:1010F200882DB3010E948A0429E131E040E0882D65
:10110200B3010E94CA0E10EDE12E17E0F12E00E0AD
:1011120010E020E231E040E0882DB3010E948A0411
:1011220023E231E040E0882DB3010E94CA0E20E2A2
:1011320031E040E0882DB3010E948A0428E231E0C8
:1011420040E0882DB3010E94CA0E20E231E040E067
:10115200882DB3010E948A0424E331E040E0882D07
:10116200B3010E94CA0E20E231E040E0882DB301B3
:101172000E948A0481E001C080E01F910F91FF90DC
:0A118200EF908F907F906F9008951A
:10118C0010C00E94F40F58F00E94ED0F40F029F4AB
:10119C005F3F29F00C94091051110C94FC0F0C9426
:1011AC002E100E94EC0E68F39923B1F3552391F3A2
:1011BC00951B550BBB27AA2762177307840738F0BA
:1011CC009F5F5F4F220F331F441FAA1FA9F335D017
:1011DC000E2E3AF0E0E832D091505040E695001CCB
:1011EC00CAF72BD0FE2F29D0660F771F881FBB1F85
:1011FC00261737074807AB07B0E809F0BB0B802D63
:10120C00BF01FF2793585F4F3AF09E3F510578F08E
:10121C000C9409100C94FC0F5F3FE4F3983ED4F34C
:10122C00869577956795B795F7959F5FC9F7880F62
:10123C00911D9695879597F90895E1E0660F771FB4
:10124C00881FBB1F621773078407BA0720F0621B45
:0E125C00730B840BBA0BEE1F88F7E095089514
:10126A000FC00E94ED0F38F00E94F40F20F0952372
:10127A0011F00C9409100C942E1011240C94FC0FEC
:10128A000E94EC0E70F3959FC1F3950F50E0551F25
:10129A00629FF001729FBB27F00DB11D639FAA27C1
:1012AA00F00DB11DAA1F649F6627B00DA11D661F10
:1012BA00829F2227B00DA11D621F739FB00DA11D31
:1012CA00621F839FA00D611D221F749F3327A00DEB
:1012DA00611D231F849F600D211D822F762F6A2F87
:1012EA0011249F5750409AF0F1F088234AF0EE0FEC
:1012FA00FF1FBB1F661F771F881F91505040A9F719
:10130A009E3F510580F00C9409100C94FC0F5F3F2E
:10131A00E4F3983ED4F3869577956795B795F79554
:10132A00E7959F5FC1F7FE2B880F911D96958795CC
:04133A0097F9089582
:10133E0011C00E94ED0F38F00E94F40F20F039F426
:10134E009F3F19F426F40C942E100EF4E095E7FB53
:10135E000C940910E92F0E94EC0E58F3BA1762078D
:10136E0073078407950720F079F4A6F50C94FB0F0C
:10137E000EF4E0950B2EBA2FA02D0B01B9019001A2
:10138E000C01CA01A0011124FF27591B99F0593FE6
:10139E0050F4503E68F11A16F040A22F232F342F2E
:1013AE004427585FF3CF469537952795A795F0407C
:1013BE005395C9F77EF41F16BA0B620B730B840B91
:1013CE00BAF09150A1F0FF0FBB1F661F771F881F49
:1013DE00C2F70EC0BA0F621F731F841F48F48795A1
:1013EE0077956795B795F7959E3F08F0B0CF939593
:0E13FE00880F08F09927EE0F979587950895B0
:10140C006F927F928F92CF92DF92EF92FF920F9317
:10141C001F93CF93DF9300D00F92CDB7DEB761153A
:10142C007105810509F442C06701E02E29833A83D6
:10143C004B833B01882E24E132E040E00E94CA0E2F
:10144C0029813A814B81882DB3010E94CA0E2EE16D
:10145C0032E040E0882DB3010E94CA0E4E2D960159
:10146C00882DB3010E94CA0E2FEF80E792E0215025
:10147C0080409040E1F700C000004AE1882DB301A4
:10148C000E9461074AE0882DB3010E94610718E8A9
:10149C00E12E13E1F12E00E010E020E231E040E01B
:1014AC00882DB3010E948A0481E001C080E00F9076
:1014BC000F900F90DF91CF911F910F91FF90EF90B4
:0C14CC00DF90CF908F907F906F9008957C
:1014D800CF92DF92EF920F931F93CF93DF930F92E8
:1014E800CDB7DEB76B01E82E8A011982AE014F5FD6
:1014F8005F4F0E94D907AE2DC6010B96A11DFC01B6
:101508005A2F0E940210862F90E0FC01E05CF64FF3
:1015180020812130C9F5FC01E05CF64F10824E2D88
:101528009601245F3F4F4F4FF901542F0E9402103C
:10153800298162130AC0FC01EE5BF64F1082FC01A0
:10154800E25CF64F21E020831FC06217E9F02223F6
:10155800D9F0FC01EE5BF64F8081F801E80FF11D30
:101568002083AE2DC6010B96A11DFC015A2F0E94A7
:10157800021070E0FB01EE5BF64F808190E001966F
:10158800FB01EE5BF64F808381E00F90DF91CF91F6
:0C1598001F910F91EF90DF90CF9008950D
:1015A400CF92DF92EF92009709F458C02FE738E307
:1015B40041E0215030404040E1F700C000006C01A0
:1015C40020E8E22E8E2DB6010E94E20543E08E2D26
:1015D400B6010E94B10F8FE097E20197F1F700C0C6
:1015E400000043E08E2DB6010E94B10F8FE097E218
:1015F4000197F1F700C0000043E08E2DB6010E9470
:10160400B10F8FE097E20197F1F700C0000042E0CC
:101614008E2DB6010E94B10F8FE097E20197F1F78A
:1016240000C0000048E28E2DB6010E94B10F4CE0CC
:101634008E2DB6010E94B10F46E08E2DB6010E9498
:10164400B10F41E08E2DB6010E94B10F8FE097E2F9
:101654000197F1F700C0000081E001C080E0EF9045
:06166400DF90CF90089515
:10166A002F923F924F926F927F928F92CF92DF92F8
:10167A00EF92CF93DF93A82FCB01F901542F0E9449
:10168A000210C62F660FDD0B2097A9F1FC015A2F15
:10169A000E940210662361F1062E000C770B1C01D2
:1016AA004A2E5FEF251A350A450AC617D707E9F405
:1016BA006901E42E5FEFC51AD50AE50A842C3101C7
:1016CA00F6015E2D0E940210762F6623A1F0F30127
:1016DA00582D0E9402105FEFC51AD50AE50A5FEF7E
:1016EA00651A750A850A761759F3A42DC101CECF5A
:1016FA0070E080E002C0BC018A2FDF91CF91EF90A9
:10170A00DF90CF908F907F906F904F903F902F9067
:02171A00089530
:10171C006F927F928F92CF92DF92EF92FF920F9304
:10172C001F93CF93DF933701802E611571058105CF
:10173C0051F10C2DE82C6301122FD42F3B01882E74
:10174C00402F50E0485F5F4F440F440F440F0E94FE
:10175C00B10FC0E00FC0AE2DC6018C0F911DA11DA5
:10176C00FC015A2F0E940210462F882DB3010E94B3
:10177C00BC0FCF5FC83078F3212F4D2F882DB301CC
:10178C000E944A0F01C080E0DF91CF911F910F9111
:10179C00FF90EF90DF90CF908F907F906F90089597
:1017AC00CF93DF9390E0FC01EA5BF64F3081FC01B4
:1017BC00EC5BF64F20813217D9F0FC01EE0FFF1FC6
:1017CC00ED5DF64FC081D181DC01AC5BB64F2C9145
:1017DC00FC01FE2FEE27FF0FE050FF4FE20FF11D33
:1017EC00208128832C9130E02F5F3F4FFD01208317
:1017FC00FC01EA5BF64F3081FC01EC5BF64F20817B
:10180C0032130BC0880F991FFC01ED5CF64F019051
:10181C00F081E02D80818F7D8083DF91CF910895C1
:10182C006F927F928F92CF92DF92EF92FF920F93F3
:10183C001F9361157105810529F16901E42E3B01A6
:10184C00882E2CE032E040E00E94CA0E4E2D96010C
:10185C00882DB3010E94CA0E20E132E040E0882DB1
:10186C00B3010E94CA0E18E8E12E13E1F12E00E03C
:10187C0010E020E231E040E0882DB3010E948A04A0
:10188C0081E001C080E01F910F91FF90EF90DF90FD
:0A189C00CF908F907F906F90089519
:1018A600E89409C097FB3EF49095809570956195F4
:1018B6007F4F8F4F9F4F9923A9F0F92F96E9BB27AA
:1018C6009395F695879577956795B795F111F8CF26
:1018D600FAF4BB0F11F460FF1BC06F5F7F4F8F4F91
:1018E6009F4F16C0882311F096E911C0772321F087
:1018F6009EE8872F762F05C0662371F096E8862F1F
:1019060070E060E02AF09A95660F771F881FDAF775
:0A191600880F9695879597F90895BC
:1019200090E0FC01E65BF64F208130E02F5F3F4FF7
:10193000FC01E85BF64F408150E02417350751F178
:10194000DC01A65BB64F3C91FC01EE0FFF1FED5D85
:10195000F64F0190F081E02D2081FC01FE2FEE2753
:10196000FF0FE050FB4FE30FF11D20832C9130E07F
:101970002F5F3F4FFD012083880F991FFC01E95C19
:10198000F64F0190F081E02D808184FD03C08081BD
:0619900083FF8081089531
:10199600CF92DF92EF92CF936B01E82EC42F0E9475
:1019A600620F813031F5AE2DC6010796A11DFC01EF
:1019B6005A2F0E940210462F440F8E2DB6010E9408
:1019C600300F8130A1F44C2F44608E2DB6010E9459
:1019D600300F82E08A95F1F700C04C2F4B7F8E2D99
:1019E600B6010E94300F85E88A95F1F700000E9443
:0E19F6000F1081E0CF91EF90DF90CF90089519
:101A0400CF92DF92EF926B01E82EDA01109719F171
:101A14008C91823010F54E2D9601255F3F4F4F4F2C
:101A2400F901542F0E940210E62FF0E0E25CF64F19
:101A34008081813069F48C936901E42EF9015E2D73
:101A44000E940210E62FF0E0E25CF64F108206C01E
:101A54001C9281E003C080E001C080E0EF90DF9041
:041A6400CF90089582
:101A68000E94F40E88F09F5798F0B92F9927B75124
:101A7800B0F0E1F0660F771F881F991F1AF0BA952A
:101A8800C9F714C0B13091F00E94FB0FB1E008957E
:101A98000C94FB0F672F782F8827B85F39F0B93F70
:101AA800CCF3869577956795B395D9F73EF49095DD
:0E1AB8008095709561957F4F8F4F9F4F0895D9
:101AC6006F927F928F92CF92DF92EF92FF920F9357
:101AD6003B01882E6701E02E61157105810599F09D
:101AE6000E94A70E09C08FEFC81AD80AE80A462F27
:101AF600882DB3010E94BC0FF6015E2D0E940210D4
:101B06006111F1CF01C080E00F91FF90EF90DF905F
:0A1B1600CF908F907F906F9008959C
:101B20006F927F928F92EF92FF920F931F936115A6
:101B300071058105B1F03B01882E29E232E040E0D9
:101B40000E94CA0E18EBE12E1BE0F12E00E010E01F
:101B500020E432E040E0882DB3010E948A0481E055
:101B600001C080E01F910F91FF90EF908F907F90C8
:041B70006F900895D5
:101B74001F920F920FB60F9211240BB60F922F9350
:101B84003F934F935F936F937F938F939F93AF9301
:101B9400BF93EF93FF9380E00E94900CFF91EF912D
:101BA400BF91AF919F918F917F916F915F914F9171
:101BB4003F912F910F900BBE0F900FBE0F901F906F
:021BC400189572
:101BC6001F920F920FB60F9211240BB60F922F93FE
:101BD6003F934F935F936F937F938F939F93AF93AF
:101BE600BF93EF93FF9381E00E94900CFF91EF91DA
:101BF600BF91AF919F918F917F916F915F914F911F
:101C06003F912F910F900BBE0F900FBE0F901F901C
:021C160018951F
:101C18001F920F920FB60F9211240BB60F922F93AB
:101C28003F934F935F936F937F938F939F93AF935C
:101C3800BF93EF93FF9380E00E94D60BFF91EF9143
:101C4800BF91AF919F918F917F916F915F914F91CC
:101C58003F912F910F900BBE0F900FBE0F901F90CA
:021C68001895CD
:101C6A001F920F920FB60F9211240BB60F922F9359
:101C7A003F934F935F936F937F938F939F93AF930A
:101C8A00BF93EF93FF9381E00E94D60BFF91EF91F0
:101C9A00BF91AF919F918F917F916F915F914F917A
:101CAA003F912F910F900BBE0F900FBE0F901F9078
:021CBA0018957B
:101CBC00CF92DF92EF921F93CF93DF936B01E82EBD
:101CCC00122F842F807F90E1499FE0011124482F2F
:101CDC00422B48608E2DB6010E94CB0C4C2F412B11
:101CEC0048608E2DB6010E94CB0C81E0DF91CF9124
:0A1CFC001F91EF90DF90CF90089544
:101D0600990F0008550FAA0BE0E8FEEF1616170606
:101D1600E807F907C0F012161306E407F50798F06E
:101D2600621B730B840B950B39F40A2661F0232B87
:101D3600242B252B21F408950A2609F4A140A69503
:081D46008FEF811D811D08953E
:101D4E0021112150423071F018F4413031F019C098
:101D5E00433069F0443081F014C040E8420F0E94D5
:101D6E00B10F089540EC420F0E94B10F089544E95F
:101D7E00420F0E94B10F089544ED420F0E94B10F21
:061D8E00089581E00895B4
:101D94006F927F928F92CF92DF92EF923B01882EC7
:101DA4006901E42E09C08FEFC81AD80AE80A462F41
:101DB400882DB3010E946107F6015E2D0E94021076
:101DC4006111F1CF81E0EF90DF90CF908F907F9001
:041DD4006F9008956F
:101DD80057FD9058440F551F59F05F3F71F04795D4
:101DE800880F97FB991F61F09F3F79F087950895B9
:101DF800121613061406551FF2CF4695F1DF08C0D8
:101E0800161617061806991FF1CF869571056105F4
:041E1800089408958D
:101E1C00A1E21A2EAA1BBB1BFD010DC0AA1FBB1FE2
:101E2C00EE1FFF1FA217B307E407F50720F0A21B54
:101E3C00B30BE40BF50B661F771F881F991F1A94C1
:101E4C0069F760957095809590959B01AC01BD01EB
:041E5C00CF01089515
:101E6000672B682B89F04093730084E8809374009B
:101E7000809174008823E4F70E942210883131F0A9
:101E8000883231F481E0089580E0089581E008957A
:041E900080E0089551
:101E9400CF92DF92EF920F9361157105810551F096
:101EA4006B01E82E0E94A70E402F8E2DB6010E94D2
:101EB400BC0F01C080E00F91EF90DF90CF900895A8
:101EC40084EA8093740008C00E942210883451F080
:101ED4000E942210803241F0809174008823A4F77C
:0C1EE40081E0089580E0089580E00895FA
:101EF000092E0394000C11F4882352F0BB0F40F418
:101F0000BF2B11F460FF04C06F5F7F4F8F4F9F4F57
:021F1000089532
:101F12001F920F920FB60F9211248F9381E080933C
:0E1F22004D098F910F900FBE0F901F901895D4
:101F300057FD06C05BBF6791779187919791089590
:0A1F400061917191819191910895D2
:101F4A0061157105810531F040914C090E94E9063D
:081F5A0081E0089580E0089584
:101F620061157105810529F020E00E945E0E81E075
:061F7200089580E00895CF
:101F780061157105810529F021E00E945E0E81E05E
:061F8800089580E00895B9
:101F8E00EC010E9436100E943510CE010E943710CF
:061F9E00CE010E94331089
:101FA4001F920F920FB60F9211240F900FBE0F9035
:041FB4001F901895CD
:101FB8001F920F920FB60F9211240F900FBE0F9021
:041FC8001F901895B9
:0E1FCC005058BB27AA270E949F090C94780F3B
:0E1FDA0000240A941616170618060906089524
:0E1FE80000240A941216130614060506089526
:0E1FF600E894BB2766277727CB0197F908955B
:0E20040057FD03C05BBF67910895608108958A
:0C20120097F99F6780E870E060E0089597
:0A201E0084E98093740081E00895C6
:0A2028000E94830E08F481E0089581
:0A2032000E94830E08F48FEF08955A
:08203C008FB780688FBF089583
:0820440080917100887F08956E
:08204C000E94C6080C94780FF5
:082054000E9435090C94780F7D
:06205C009FEF80EC0895E7
:042062000C940000DA
:042066000E947F0055
:02206A000895D7
:02206C000895D5
:02206E000895D3
:0D20700000C2010003000001000008000A8A
:0D207D0000C2010003000001000008010A7C
:09208A000100A0860100002700FE
:042093002C009C0081
:04209700900098001D
:04209B00290099007F
:04209F0095009D000B
:0420A3002A009A0075
:0420A7002B009B006F
:0120AB000331
:00000001FF
