:100000000C944F000C94470B0C94470B0C94470B2B
:100010000C94470B0C94470B0C94470B0C94470B18
:100020000C94470B0C94470B0C94470B0C94470B08
:100030000C94470B0C94470B0C94470B0C94470BF8
:100040000C94470B0C9466040C94DC080C942E0959
:100050000C94E80A0C94AB0A0C94470B0C94470BD5
:100060000C94470B0C94470B0C94470B0C94470BC8
:100070000C94470B0C94470B0C9405090C945709EE
:100080000C94F20A0C94470B0C94470B01000300EC
:10009000800300032E00169C032E034380001124CE
:1000A0001FBECFEFD0E1DEBFCDBFECE8F0E040E017
:1000B00019C0B791A79137912791079107FD0EC0FD
:1000C00097918791EF01F92FE82F0BBF07900D92C1
:1000D000A217B307D9F7FE011BBE04C01D92A217D9
:1000E000B307E1F7ED39F40721F70E9434020C94CD
:0600F000DD0AF894FFCFC9
:1000F60057656C636F6D65204245444F005541520C
:100106005420544F20555342200055415254204DFF
:100116006573736167650020202020202020202041
:080126002020202020202000F1
:08012E00000A1F1F0E0400006F
:08013600000A0004110E000094
:10013E004F925F926F927F928F92CF92DF92EF9259
:10014E000F931F93CF93DF936B01E82EA82FCB0154
:10015E000A96A11DFC015A2F0E94180B262F6830FB
:10016E0061F4AE2DC6010596A11DFC015A2F0E9409
:10017E00180B662321F000E103C000E101C008E086
:10018E00AE2DC6010496A11DFC015A2F0E94180B1C
:10019E00862F837090E0880F991FC82F36018E2C02
:1001AE0035E0630E711C811CF301582D0E94180B53
:1001BE00613009F4C064AE2DC6010696A11DFC0186
:1001CE005A2F0E94180B613009F4C160AE2DC60182
:1001DE000896A11DFC015A2F0E94180B613009F4DC
:1001EE00C860AE2DC6010996A11DFC015A2F0E94B2
:1001FE00180B80E1689FB0011124C62B283011F036
:10020E0010E001C012E0AE2DC6010796A11DFC0143
:10021E005A2F0E94180B613021F40E94340BD0EE3D
:10022E0001C0D0E0602F70E080E090E00E94DA071D
:10023E009B01AC0160E074E284EF9AE40E943C0BF7
:10024E002B013C01F6015E2D0E94BA0A0E94DA07CC
:10025E009B01AC01C301B2010E943C0B20E030E0D7
:10026E0040E85FE30E94FC0A0E9499010E94800808
:10027E00862F9BE0C90ED11CE11CF6015E2D0E945B
:10028E00180BE62FF0E0EE0FFF1FE65EFC4F01901D
:10029E00F081E02D7083F6015E2D0E94180BE62F83
:1002AE00F0E0EE0FFF1FE25EFC4F0190F081E02DBB
:1002BE008083F6015E2D0E94180BE62FF0E0EE0F04
:1002CE00FF1FE65DFC4F0190F081E02D1083F601DB
:1002DE005E2D0E94180BE62FF0E0EE0FFF1FEA5D79
:1002EE00FC4F0190F081E02DD861D083F6015E2D98
:1002FE000E94180BE62FF0E0EE0FFF1FEE5DFC4F95
:10030E000190F081E02DC08381E0DF91CF911F91AC
:10031E000F91EF90DF90CF908F907F906F905F90C6
:04032E004F9008954F
:100332004F925F926F927F928F929F92AF92BF92F3
:10034200CF92DF92EF92FF92CF93DF9300D000D053
:10035200CDB7DEB76B017C0127E1F694E794D79421
:10036200C7942A95D1F796013327263931050CF027
:1003720067C06B017C014B015C0197FF04C0B7FAB7
:10038200B094B7F8B0942B013C012E373105A4F498
:1003920020E030E040E05BE4C501B4010E94FD0AC8
:1003A20069837A838B839C8320E030E0A901C301B7
:1003B200B2010E94400B44C020E030E040E05BE428
:1003C200C501B4010E94FD0A20E030E040E05BE498
:1003D2000E94FC0AA50194010E94FC0A2B013C0127
:1003E20020E030E040E05FE30E942F0B18166CF42F
:1003F200A3019201C501B4010E94FD0A20E030E090
:1004020040E85FE30E94FC0A19C020E030E040E0CF
:100412005FEBC301B2010E942A0BA30192011816DD
:100422004CF0C501B4010E94FD0A20E030E040E832
:100432005FE302C0C501B4010E94FD0AF7FC9058B7
:100442000F900F900F900F90DF91CF91FF90EF9050
:10045200DF90CF90BF90AF909F908F907F906F90E2
:060462005F904F90089529
:10046800CF93DF93CDB7DEB761970FB6F894DEBFB1
:100478000FBECDBF8DE093E00E9486068DE093E02D
:100488002C0120E8622E782E852C922EC12C0EE2AB
:10049800E02E01E0F02E00E021E041E0862DB201DF
:1004A8000E94920706EFE02E00E0F02E00E023E025
:1004B80041E0862DB2010E94AF08CC24C39406E324
:1004C800E02E01E0F02E00E020E141E0862DB201AF
:1004D8000E9492078FEF9EE9E4E281509040E0404D
:1004E800E1F700C0000003E0E02E01E0F02E00E09C
:1004F80023E041E0862DB2010E94AF0880E093E03E
:100508002C01F0E86F2EC82ED52C1F2F862DB20196
:100518000E949F0020E131E040E0862DB2010E9458
:10052800EC091982AE014E5F5F4F6C2D7D2D812F36
:100538000E94D704AE014F5F5F4F6C2D7D2D812F38
:100548000E944E088981813069F70DE1E02E01E0B3
:10055800F02E00E021E042E0672D782D892D0E94E1
:10056800AF085E0122E0A20EB11C750180E8082FD9
:1005780021E042E0672D782D892D0E94AF0880E1A7
:0C058800F50111928A95E9F71982CCCF99
:10059400CF92DF92EF926B01E82EA82FCB01079642
:1005A400A11DFC015A2F0E94180B613009F05AC09A
:1005B400AE2DC6010B96A11DFC015A2F0E94180BEB
:1005C40070E0FB01EA5CFC4F808190E001968F7340
:1005D4009078992324F40197806C9F6F0196FB0116
:1005E400EC5CFC4F208130E08217930709F459C07A
:1005F400FB01EA5CFC4F8081FB010024F695E79542
:100604000794F695E7950794FE2FE02DE050FE4FF2
:10061400E80FF11D40838BE0C80ED11CE11CF601EC
:100624005E2D0E94180B70E0FB01EA5CFC4F808198
:1006340090E001968F739078992324F40197806C4D
:100644009F6F0196FB01EA5CFC4F8083660F771F66
:10065400FB01EA5DFC4F0190F081E02D8081806216
:1006640080831FC061111DC0AE2DC6010B96A11D54
:10067400FC015A2F0E94180B70E0FB01EE0FFF1FC4
:10068400E65DFC4F0190F081E02D808185FFECCF89
:10069400660F771FFB01EA5EFC4F0190F081E02DAD
:0C06A400408381E0EF90DF90CF9008953C
:1006B000CF92DF92EF92CF93DF93A82FCB010097D9
:1006C000A10509F472C0FC015A2F0E94180B623078
:1006D00008F06DC0E4E7F0E02081622B60839C01AC
:1006E0004A2F2F5F3F4F4F4FF901542F0E94180B95
:1006F000643008F05EC0E1E7F0E02081622B6083A7
:10070000C2E7D0E028816C01EA2E37E0C30ED11C8D
:10071000E11CF6015E2D0E94180B6E7F262B2883AC
:100720009C014A2F2F5F3F4F4F4FF901542F0E94DA
:10073000180B662331F0613031F0623031F4C0E1E2
:1007400005C0C1E003C0C4E001C0C0E40296A11D21
:10075000FC015A2F0E94BA0A9B01AC0160E072E1D1
:100760008AE790E00E94300ACA01B901605171091C
:10077000810991092C2F30E0220F331F032E000C2A
:10078000440B550B0E94300ACA01B9010E94DA07D6
:100790000E9499010E94800860937000E4E7F0E0F5
:1007A00080818460808381E005C080E003C080E0B8
:1007B00001C080E0DF91CF91EF90DF90CF9008955E
:1007C000CF92DF92EF926B01E82EDA019B01482F66
:1007D000255F3F4F4F4FF901542F0E94180B862F72
:1007E00090E0FC01E65CFC4F70814E2D9601295F84
:1007F0003F4F4F4FF901542F0E94180B6130E1F524
:10080000FC01E85CFC4F2081721709F45AC0FC011E
:10081000E85CFC4F2081FC010024F695E7950794E5
:10082000F695E7950794FE2FE02DE058FD4FE20F77
:10083000F11D80818C938BE0C80ED11CE11CF60168
:100840005E2D0E94180B70E0FB01E85CFC4F80817C
:1008500090E001968F739078992324F40197806C2F
:100860009F6F0196FB01E85CFC4F8083FB01E05D1C
:10087000FC4F81E0808325C0611123C0FC01EE0F95
:10088000FF1FE65DFC4F0190F081E02D20812223C7
:10089000ACF7880F991FFC01EA5EFC4F0190F081D4
:1008A000E02D80818C938BE0C80ED11CE11CF601F9
:1008B0005E2D0E94180BE62FF0E0E05DFC4F81E01A
:0C08C000808381E0EF90DF90CF900895DE
:1008CC001F920F920FB60F9211240BB60F922F930B
:1008DC003F938F939F93EF93FF936C9B1BC08091DF
:1008EC003D03813019F480933F034EC080913D034A
:1008FC00833009F049C010923E038091400390E090
:10090C000196907899231CF401979F6F0196809320
:10091C0040033AC080913D03823021F5809142031F
:10092C0090E00196907899231CF401979F6F0196A3
:10093C002091410330E08217930731F1E09142039B
:10094C00F0E08FB1E050FF4F80838091420390E044
:10095C000196907899231CF401979F6F01968093D0
:10096C00420312C080913D03833071F410923E0318
:10097C008091400390E00196907899231CF40197A4
:10098C009F6F019680934003FF91EF919F918F9100
:10099C003F912F910F900BBE0F900FBE0F901F9099
:0209AC0018959C
:1009AE00CF92DF92EF920F931F93CF93DF930F921D
:1009BE00CDB7DEB76B01E82E8A011982AE014F5F0B
:1009CE005F4F0E94E003AE2DC6010B96A11DFC01E8
:1009DE005A2F0E94180B862F90E0FC01E05DFC4F11
:1009EE002081213009F041C0FC01E05DFC4F1082F6
:1009FE004E2D9601245F3F4F4F4FF901542F0E9409
:100A0E00180B298162130AC0FC01EE5CFC4F1082A8
:100A1E00FC01E25DFC4F21E0208327C0621729F123
:100A2E00222319F1FC01EE5CFC4F8081F801E80FE6
:100A3E00F11D2083AE2DC6010B96A11DFC015A2F70
:100A4E000E94180B70E0FB01EE5CFC4F808190E081
:100A5E0001968F739078992324F40197806C9F6F81
:100A6E000196FB01EE5CFC4F808381E00F90DF91DD
:0E0A7E00CF911F910F91EF90DF90CF900895D0
:100A8C0010C00E940A0B58F00E94030B40F029F48E
:100A9C005F3F29F00C941F0B51110C94120B0C940A
:100AAC00440B0E940E0A68F39923B1F3552391F37A
:100ABC00951B550BBB27AA2762177307840738F0C1
:100ACC009F5F5F4F220F331F441FAA1FA9F335D01E
:100ADC000E2E3AF0E0E832D091505040E695001CD2
:100AEC00CAF72BD0FE2F29D0660F771F881FBB1F8C
:100AFC00261737074807AB07B0E809F0BB0B802D6A
:100B0C00BF01FF2793585F4F3AF09E3F510578F095
:100B1C000C941F0B0C94120B5F3FE4F3983ED4F330
:100B2C00869577956795B795F7959F5FC9F7880F69
:100B3C00911D9695879597F90895E1E0660F771FBB
:100B4C00881FBB1F621773078407BA0720F0621B4C
:0E0B5C00730B840BBA0BEE1F88F7E09508951B
:100B6A000FC00E94030B38F00E940A0B20F0952355
:100B7A0011F00C941F0B0C94440B11240C94120BBF
:100B8A000E940E0A70F3959FC1F3950F50E0551F0E
:100B9A00629FF001729FBB27F00DB11D639FAA27C8
:100BAA00F00DB11DAA1F649F6627B00DA11D661F17
:100BBA00829F2227B00DA11D621F739FB00DA11D38
:100BCA00621F839FA00D611D221F749F3327A00DF2
:100BDA00611D231F849F600D211D822F762F6A2F8E
:100BEA0011249F5750409AF0F1F088234AF0EE0FF3
:100BFA00FF1FBB1F661F771F881F91505040A9F720
:100C0A009E3F510580F00C941F0B0C94120B5F3F12
:100C1A00E4F3983ED4F3869577956795B795F7955B
:100C2A00E7959F5FC1F7FE2B880F911D96958795D3
:040C3A0097F9089589
:100C3E0011C00E94030B38F00E940A0B20F039F409
:100C4E009F3F19F426F40C94440B0EF4E095E7FB49
:100C5E000C941F0BE92F0E940E0A58F3BA17620765
:100C6E0073078407950720F079F4A6F50C94110B01
:100C7E000EF4E0950B2EBA2FA02D0B01B9019001A9
:100C8E000C01CA01A0011124FF27591B99F0593FED
:100C9E0050F4503E68F11A16F040A22F232F342F35
:100CAE004427585FF3CF469537952795A795F04083
:100CBE005395C9F77EF41F16BA0B620B730B840B98
:100CCE00BAF09150A1F0FF0FBB1F661F771F881F50
:100CDE00C2F70EC0BA0F621F731F841F48F48795A8
:100CEE0077956795B795F7959E3F08F0B0CF93959A
:0E0CFE00880F08F09927EE0F979587950895B7
:100D0C00CF92DF92EF92009709F458C02FE738E3A7
:100D1C0041E0215030404040E1F700C000006C0140
:100D2C0020E8E22E8E2DB6010E94580343E08E2D52
:100D3C00B6010E94C70A8FE097E20197F1F700C055
:100D4C00000043E08E2DB6010E94C70A8FE097E2A7
:100D5C000197F1F700C0000043E08E2DB6010E9410
:100D6C00C70A8FE097E20197F1F700C0000042E05C
:100D7C008E2DB6010E94C70A8FE097E20197F1F71A
:100D8C0000C0000048E28E2DB6010E94C70A4CE05C
:100D9C008E2DB6010E94C70A46E08E2DB6010E9428
:100DAC00C70A41E08E2DB6010E94C70A8FE097E278
:100DBC000197F1F700C0000081E001C080E0EF90E6
:060DCC00DF90CF900895B6
:100DD20090E0FC01E65CFC4F208130E02F5F3F4F4A
:100DE2002F733078332334F421503109206C3F6F54
:100DF2002F5F3F4FFC01E85CFC4F408150E024171D
:100E02003507E1F1DC01A65CBC4F3C91FC01EE0F21
:100E1200FF1FEA5EFC4F0190F081E02D2081FC0172
:100E22000024F695E7950794F695E7950794FE2F2B
:100E3200E02DE058FD4FE30FF11D20832C9130E0AF
:100E42002F5F3F4F2F733078332334F42150310911
:100E5200206C3F6F2F5F3F4FFC01E65CFC4F20830D
:100E6200880F991FFC01E65DFC4F0190F081E02D97
:0E0E7200808184FD03C0808183FF808108950C
:100E8000CF93DF9390E0FC01EA5CFC4F3081FC01E2
:100E9000EC5CFC4F2081321769F1FC01EE0FFF1F63
:100EA000EA5EFC4FC081D181DC01AC5CBC4F2C916F
:100EB000FC010024F695E7950794F695E7950794CD
:100EC000FE2FE02DE050FE4FE20FF11D2081288320
:100ED0002C9130E02F5F3F4F2F733078332334F461
:100EE00021503109206C3F6F2F5F3F4FFC01EC5CBC
:100EF000FC4F2083FC01EA5CFC4F3081FC01EC5C80
:100F0000FC4F208132130BC0880F991FFC01EA5D52
:100F1000FC4F0190F081E02D80818F7D8083DF91F7
:040F2000CF910895D0
:100F24006F927F928F92CF92DF92EF92FF920F9304
:100F34001F93CF93DF933701802E611571058105CF
:100F440051F10C2DE82C6301122FD42F3B01882E74
:100F5400402F50E0485F5F4F440F440F440F0E94FE
:100F6400C70AC0E00FC0AE2DC6018C0F911DA11D94
:100F7400FC015A2F0E94180B462F882DB3010E94A2
:100F8400D20ACF5FC83078F3212F4D2F882DB301BB
:100F94000E946C0A01C080E0DF91CF911F910F91F4
:100FA400FF90EF90DF90CF908F907F906F90089597
:100FB400E89409C097FB3EF49095809570956195EF
:100FC4007F4F8F4F9F4F9923A9F0F92F96E9BB27A5
:100FD4009395F695879577956795B795F111F8CF21
:100FE400FAF4BB0F11F460FF1BC06F5F7F4F8F4F8C
:100FF4009F4F16C0882311F096E911C0772321F082
:101004009EE8872F762F05C0662371F096E8862F19
:1010140070E060E02AF09A95660F771F881FDAF770
:0A102400880F9695879597F90895B7
:10102E00CF92DF92EF92CF936B01E82EC42F0E94E6
:10103E00840A813031F5AE2DC6010796A11DFC0143
:10104E005A2F0E94180B462F440F8E2DB6010E9468
:10105E00520A8130A1F44C2F44608E2DB6010E94AD
:10106E00520A82E08A95F1F700C04C2F4B7F8E2DED
:10107E00B6010E94520A85E88A95F1F700000E9497
:0E108E00250B81E0CF91EF90DF90CF90089579
:10109C00CF92DF92EF926B01E82EDA01109719F1E3
:1010AC008C91823010F54E2D9601255F3F4F4F4F9E
:1010BC00F901542F0E94180BE62FF0E0E25DFC4F73
:1010CC008081813069F48C936901E42EF9015E2DE5
:1010DC000E94180BE62FF0E0E25DFC4F108206C078
:1010EC001C9281E003C080E001C080E0EF90DF90B3
:0410FC00CF900895F4
:101100000E94160A88F09F5798F0B92F9927B75177
:10111000B0F0E1F0660F771F881F991F1AF0BA959B
:10112000C9F714C0B13091F00E94110BB1E00895DD
:101130000C94110B672F782F8827B85F39F0B93FCF
:10114000CCF3869577956795B395D9F73EF490954E
:0E1150008095709561957F4F8F4F9F4F08954A
:10115E006F927F928F92CF92DF92EF92FF920F93C8
:10116E003B01882E6701E02E61157105810599F00E
:10117E000E94C90909C08FEFC81AD80AE80A462F7B
:10118E00882DB3010E94D20AF6015E2D0E94180B23
:10119E006111F1CF01C080E00F91FF90EF90DF90D1
:0A11AE00CF908F907F906F9008950E
:1011B8001F920F920FB60F9211240BB60F922F9316
:1011C8003F934F935F936F937F938F939F93AF93C7
:1011D800BF93EF93FF9380E00E94E906FF91EF91A0
:1011E800BF91AF919F918F917F916F915F914F9137
:1011F8003F912F910F900BBE0F900FBE0F901F9035
:02120800189537
:10120A001F920F920FB60F9211240BB60F922F93C3
:10121A003F934F935F936F937F938F939F93AF9374
:10122A00BF93EF93FF9381E00E94E906FF91EF914C
:10123A00BF91AF919F918F917F916F915F914F91E4
:10124A003F912F910F900BBE0F900FBE0F901F90E2
:02125A001895E5
:10125C001F920F920FB60F9211240BB60F922F9371
:10126C003F934F935F936F937F938F939F93AF9322
:10127C00BF93EF93FF9380E00E944007FF91EF91A3
:10128C00BF91AF919F918F917F916F915F914F9192
:10129C003F912F910F900BBE0F900FBE0F901F9090
:0212AC00189593
:1012AE001F920F920FB60F9211240BB60F922F931F
:1012BE003F934F935F936F937F938F939F93AF93D0
:1012CE00BF93EF93FF9381E00E944007FF91EF9150
:1012DE00BF91AF919F918F917F916F915F914F9140
:1012EE003F912F910F900BBE0F900FBE0F901F903E
:0212FE00189541
:10130000CF92DF92EF921F93CF93DF936B01E82E82
:10131000122F842F807F90E1499FE0011124482FF4
:10132000422B48608E2DB6010E9417084C2F412B8E
:1013300048608E2DB6010E94170881E0DF91CF91A1
:0A1340001F91EF90DF90CF90089509
:10134A00990F0008550FAA0BE0E8FEEF16161706CC
:10135A00E807F907C0F012161306E407F50798F034
:10136A00621B730B840B950B39F40A2661F0232B4D
:10137A00242B252B21F408950A2609F4A140A695C9
:08138A008FEF811D811D089504
:1013920021112150423071F018F4413031F019C05E
:1013A200433069F0443081F014C040E8420F0E949B
:1013B200C70A089540EC420F0E94C70A089544E903
:1013C200420F0E94C70A089544ED420F0E94C70AC5
:0613D200089581E008957A
:1013D8006F927F928F92CF92DF92EF923B01882E8D
:1013E8006901E42E09C08FEFC81AD80AE80A462F07
:1013F800882DB3010E94CA02F6015E2D0E94180BC7
:101408006111F1CF81E0EF90DF90CF908F907F90C6
:041418006F90089534
:10141C0057FD9058440F551F59F05F3F71F0479599
:10142C00880F97FB991F61F09F3F79F0879508957E
:10143C00121613061406551FF2CF4695F1DF08C09D
:10144C00161617061806991FF1CF869571056105BA
:04145C000894089553
:10146000A1E21A2EAA1BBB1BFD010DC0AA1FBB1FA8
:10147000EE1FFF1FA217B307E407F50720F0A21B1A
:10148000B30BE40BF50B661F771F881F991F1A9487
:1014900069F760957095809590959B01AC01BD01B1
:0414A000CF010895DB
:1014A400672B682B89F04093730084E88093740061
:1014B400809174008823E4F70E94380B883131F05E
:1014C400883231F481E0089580E0089581E0089540
:0414D40080E0089517
:1014D800CF92DF92EF920F9361157105810551F05C
:1014E8006B01E82E0E94C909402F8E2DB6010E947B
:1014F800D20A01C080E00F91EF90DF90CF9008955D
:1015080084EA8093740008C00E94380B883451F034
:101518000E94380B803241F0809174008823A4F730
:0C15280081E0089580E0089580E00895BF
:10153400092E0394000C11F4882352F0BB0F40F4DD
:10154400BF2B11F460FF04C06F5F7F4F8F4F9F4F1D
:021554000895F8
:101556001F920F920FB60F9211248F9381E0809302
:0E1566003C038F910F900FBE0F901F901895B1
:1015740057FD06C05BBF6791779187919791089556
:0A1584006191719181919191089598
:10158E0061157105810529F020E00E94800981E036
:06159E00089580E00895AD
:1015A40061157105810529F021E00E94800981E01F
:0615B400089580E0089597
:1015BA00EC010E944C0B0E944B0BCE010E944D0B7A
:0615CA00CE010E94490B56
:1015D0001F920F920FB60F9211240F900FBE0F9013
:0415E0001F901895AB
:1015E4001F920F920FB60F9211240F900FBE0F90FF
:0415F4001F90189597
:0E15F8005058BB27AA270E941F060C949A0A7F
:0E16060000240A941616170618060906089501
:0E16140000240A941216130614060506089503
:0E162200E894BB2766277727CB0197F9089538
:0E16300057FD03C05BBF679108956081089568
:0C163E0097F99F6780E870E060E0089575
:0A164A0084E98093740081E00895A4
:0A1654000E94A50908F481E0089542
:0A165E000E94A50908F48FEF08951B
:081668008FB780688FBF089561
:0816700080917100887F08954C
:081678000E9446050C949A0A39
:081680000E94B5050C949A0AC2
:061688009FEF80EC0895C5
:04168E000C940000B8
:041692000E94790039
:021696000895B5
:021698000895B3
:02169A000895B1
:0D169C008025000003000001000008010D82
:0916A9000100A0860100002700E9
:0416B2002C009C006C
:0416B6009000980008
:0416BA00290099006A
:0416BE0095009D00F6
:0416C2002A009A0060
:0416C6002B009B005A
:00000001FF
